:0400000098EF3FF046
:107F3000096A086A076A066A0001B6EF3FF001C0E5
:107F400003F0030E0316033ABA500318CF0B0318BD
:107F5000BA6E01C003F002C004F0D89004320332BC
:107F6000D890043203320350BB6E1200D388D38AF8
:107F7000D38C030ED312D3A4FED7000E936E8A685F
:107F80009492CA96CA98CA9ACA9CFC0ECA16130E34
:107F9000CB6ECF0EBA16BA50F00B0C09BA6E000EAB
:107FA000BB6ECA8406040710D8A403D00806D8A064
:107FB000090608C001F009C002F09FEC3FF006502E
:107FC0000710D8A402D0084A092A410E056EEE0E09
:107FD000E82EFED7052EFCD700D0095004E14F0E45
:107FE000085CD8A004D0000E076E010E066E085083
:107FF0000910D8A4D7D7000E076E000E066ED2D790
:020000040020DA
:08000000FFFFFFFFFFFFFFFF00
:020000040030CA
:0E000000FF08191EFF8181FF0FC00FE00F40A7
:00000001FF
